:100000000C9495110C94BD110C94BD110C94BD1160
:100010000C94BD110C94BD110C94BD110C94BD1128
:100020000C94BD110C94BD110C94BD110C94BD1118
:100030000C94BD110C94BD110C94BD110C94BD1108
:100040000C949E280C94BD110C940E290C94E82855
:100050000C94BD110C94BD110C94BD110C94BD11E8
:100060000C94BD110C94BD114E414E494E4954594A
:10007000494E46CDCCCC3D0AD7233C17B7D1387773
:10008000CC2B329595E6241FB14F0A000020410089
:1000900000C84200401C4620BCBE4CCA1B0E5AAED3
:1000A000C59D740000000006000100000212080354
:1000B000EF050006060801F00A000D100D00F124FE
:1000C000000B140D01EF400014111501F06B000E30
:1000D000111001F0890002060501F08B00051708D8
:1000E00002EF9A0005170801EFA90007070901EFC1
:1000F000B0000A0B0E02F6BE0002060702FFC000A7
:1001000006020801F9C20002020602FFC30007123C
:100110000700EFD3000B110D01F0EB0005110D03EB
:10012000F0F6000B110D01F00E010B110D01F02680
:10013000010B110D01F03E010B110D01F056010BE9
:10014000110D01F06E010B110D01F086010B110D67
:1001500001F09E010B110D01F0B601020D0602F433
:10016000BA0102100602F5BE010C0C0E01F5D00119
:100170000C060E01F8D9010C0C0E01F5EB010A1268
:100180000D02EF020216151801EF3C0210121000CA
:10019000EF60020D121002EF7E020F121101EFA0AC
:1001A000020E121102EFC0020C120F02EFDB020B63
:1001B000120E02EFF40210121201EF18030D1211C9
:1001C00002EF360302120702EF3B0309120D01EFA3
:1001D00050030E121002EF70030A120E02EF870393
:1001E00010121402EFAB030D121202EFC903111229
:1001F0001301EFF0030C121002EF0B0411131301A3
:10020000EF34040E121102EF54040E121001EF74B9
:10021000040C120F01EF8F040D121102EFAD040F49
:10022000120F00EFCF0416121600EF01050F121087
:1002300000EF230510121000EF47050D120F01EF1C
:10024000650504170702EF710507120700EF810526
:1002500004170701EF8D0509090B01F098050F013F
:100260000DFF049A0505040601EF9D050C0D0D0117
:10027000F4B1050C120D01EFCC050A0D0C01F4DDF3
:10028000050B120D01EFF6050B0D0D01F408060527
:10029000120701EF14060B120D01F42D060A120DC0
:1002A00001EF440602120502EF490604170600EFAB
:1002B00055060B120C01EF6E0602120501EF7306D4
:1002C000110D1301F48F060A0D0D01F4A0060B0D9C
:1002D0000D01F4B2060C110D01F4CC060B110D0149
:1002E000F4E406060D0801F4EE060A0D0C01F4FF15
:1002F0000605100701F109070A0D0D01F41A070C94
:100300000D0C00F42E07110D1100F44A070B0D0B14
:1003100000F45C070B120B00F475070A0D0C01F4D6
:10032000860705170801EF950702170602EF9B07DE
:1003300005170802EFAA070A050C01F6FFFFFFF0F8
:10034000F0CF3CF38A20063031031818C7FFBFFCFA
:1003500031031818C7FFBFFC31011818C0C606309A
:100360000403E1FF726C4788F107207E03F0170257
:100370003C4788F11B267FC3E0100200000603C043
:10038000407E0C0E7080C3180C3100E73007E60089
:100390003C40000C7C008FE019C70118303183020B
:1003A0001C7040FE0407C00F007E039C0C3030C060
:1003B000E701F803803E01CC6E19B07CC0F303CE98
:1003C0001F9FE61E1CFFA0088C663198C6318C6307
:1003D000086308610C208218C318C318C6318C62E8
:1003E0003188C4620010235BE38D91000C0300C0D0
:1003F00030FFFFF0C0300C0300C0F560FFF0F002EA
:100400000C1020C1020C1020C1020C1020C1001FD2
:1004100007F1C7306E0F80F01E03C0780F01E03C7B
:100420000EC19C71FC1F0008CFFF8C6318C6318C75
:1004300063181F0FF987607C0600C0180701C0F021
:10044000781C0600803007FFFFE03F0FF387606CE9
:100450000C0180707C0F801801803C0780D873FCF1
:100460001F000180700E03C0D81B06618C218C33E5
:10047000067FFFFE0300600C01803FCFF98030064D
:1004800000DE1FE70E00E00C0180300781F873FCEE
:100490001F000F07F9C33074018033C7FEF0DC1F63
:1004A00001E03C06C1DC71FC1F00FFFFFC010060A5
:1004B000180200C03006018030040180300601803F
:1004C00030001F07F1C730660CC18C61FC3F8E3BCA
:1004D00001E03C0780D831FC1F001F07F1C7706C9A
:1004E0000780F01E0761EFFC79803005819873FC6E
:1004F0001E00F00003C0F0000F5600000701E0F8F6
:100500003C0F00E007C00F003C00F001FFFFFF00C0
:100510000000FFFFFF000E007801F007C00F007021
:100520001E0F03C0F008001F1FEE1B03C0C0300CDD
:10053000060381C0E0300C030000000C030000FE45
:10054000000FFE00F03E07003C380030C1E0660FAF
:10055000D9D861C3C3070F1C1C3C6060F18183C6FE
:10056000061B1838EE71E718FDF871E7C0E00001CE
:10057000E00001FFC001FC0003C003C003C007E0AE
:10058000066006600E700C300C301C3818181FF80E
:100590003FFC301C300C700E60066006FFC7FF3059
:1005A00019806C03601B00D80CFFC7FF300D803C26
:1005B00001E00F007806FFF7FE0007E03FF0E07370
:1005C0008066006C0030006000C0018003000600FF
:1005D00006006C00DC031E0E1FF80FC0FF83FF8CAB
:1005E00007300EC01B007C00F003C00F003C00F081
:1005F00003C01F006C03B01CFFE3FF00FFFFFFC040
:100600000C00C00C00C00C00FFEFFEC00C00C00CC2
:1006100000C00C00FFFFFFFFFFFF00600C018030F7
:100620000600FFDFFB00600C0180300600C01800F0
:1006300007F01FFC3C1E70066003E000C000C00015
:10064000C07FC07FC003C00360036007300F3C1F42
:100650001FFB07E1C01E00F007803C01E00F00789F
:1006600003FFFFFFF007803C01E00F007803C01E8E
:1006700000C0FFFFFFFFF00180C06030180C0603D0
:100680000180C0603C1E0F07C77F1F00C03B01CC2C
:100690000E3070C3831C0CE03380DE03DC0E383078
:1006A00060C1C3038C06301CC03B0060C0300C032B
:1006B00000C0300C0300C0300C0300C0300C03003D
:1006C000FFFFF0E007E007F00FF00FD00FD81BD8C6
:1006D0001BD81BCC33CC33CC33C663C663C663C3D1
:1006E000C3C3C3C3C3C183E01F00FC07E03D81EE69
:1006F0000F3079C3C61E18F0E7833C1DE06F01F888
:100700000FC03E01C003E00FFC0F078600C6003398
:10071000001B00078003C001E000F00078003600F5
:10072000330018C018783C1FFC03F800FF8FFEC090
:100730006C03C03C03C03C07FFEFFCC00C00C00CC6
:1007400000C00C00C00C0003E00FFC0F078600C6C1
:100750000033001B00078003C001E000F0007800B8
:100760003600330198C0FC783C1FFF03F98000403D
:10077000FFC3FFCC03B006C01B006C01B00CFFE34D
:10078000FFCC03B006C01B006C01B006C01B00709C
:100790000FE07FC3839C07600D8006001E003F8032
:1007A0003FC00F8007C00F003E00DE0E3FF03F80CD
:1007B000FFFFFF060060060060060060060060069E
:1007C0000060060060060060060060C01E00F007C2
:1007D000803C01E00F007803C01E00F007803C0160
:1007E000E00F80EE0E3FE07C006006C01DC031804F
:1007F0006301C70306060C1C1C30186031C073006F
:100800006600DC01F001E003C00700E0301D80E07D
:10081000760781D81E06707C18C1B0E30CC38C33F8
:100820000C38C6306718C198670661D81D83603CD4
:100830000D80F03E03C0700F01C0180700700E60FD
:1008400038E060E1C0C301CC01F801E0038007801B
:100850001F003300E70386060E1C0E700CC01C60E0
:1008600006700E301C38181C380C300E70066003F1
:10087000C003C001800180018001800180018001EE
:10088000800180FFFFFFC00E00E00E0060070070D7
:1008900007003003803803801801C01C00FFFFFFF1
:1008A000C0FFCCCCCCCCCCCCCCCCCCCFF08181029A
:1008B00006040818102060408181020604FF3333CB
:1008C000333333333333333FF00C0E0586C32119F2
:1008D0008C83C180FFFEE38C303F07F8E1CC0C0035
:1008E000C01C3FCF8CC0CC0CE3C7EF3C70C00C00E9
:1008F000C00C00C00CF8DFCF0EE07C03C03C03C08E
:100900003C03E06F0EDFCCF81F0FE71B83C0300CF9
:100910000300C038371CFE1F0000600C0180300649
:100920003CCFFB8FE0F80F01E03C0780F83B8F3FA6
:1009300063CC1F07F1C7703C07FFFFFE00C01C0D12
:10094000C31FE1F03BD8C67FEC6318C6318C63004F
:100950001E67FDC7F07C0780F01E03C07C1DC79F8B
:10096000B1E600C03E0E7FC7E0C0300C0300C033CC
:10097000CDFBC7E0F03C0F03C0F03C0F03C0F030EC
:10098000F03FFFFFF0330003333333333333333F70
:10099000E0C0180300600C018330C630CC1B83F02C
:1009A000770C618E30E60CC1D818FFFFFFFFF0CF47
:1009B0001F6FDFFC78FC183C0C1E060F03078183B9
:1009C000C0C1E060F03078183C0C18CF37EF1F83BF
:1009D000C0F03C0F03C0F03C0F03C0C01F07F1C7BD
:1009E000707C0780F01E03C07C1DC71FC1F0CF8D37
:1009F000FCF0EE06C03C03C03C03C03E07F0EFFC39
:100A0000CF8C00C00C00C0001E67FDC7F07C0780C3
:100A1000F01E03C07C1DC79FF1E600C018030060F4
:100A2000CF7F38C30C30C30C30C03E1FEE1B00C05C
:100A30003C07F03E01F03E1DFE3E006319FFB18C05
:100A40006318C631E7C0F03C0F03C0F03C0F03C091
:100A5000F07E3DFB3CC0E0660660670C30C30C399D
:100A600081981981F00F00E00E00C1C1B0E1D8708B
:100A7000CC2C6636319B18CD98646C16360F1A074D
:100A80008F038380C1C060EE18C60CC1F01C0180CA
:100A9000781B0330C7306606E06C0D8338630C6347
:100AA0000E60CC1B03603C0700E0180300E0780EEA
:100AB00000FFFFF0180C070381C06030180E03FF21
:100AC000FFC019CC6318C631998618C6318C631CD7
:100AD00060FFFFFFFFFFFCC718C6318C630C33318A
:100AE0008C6318C67300703E09E41F038000000089
:100AF000000900010000031A0C04E70A0009090CB0
:100B000001E8150013181300E94E00101E1302E649
:100B10008A001D191F01E8E50014191702E82401D5
:100B200003090702E8280108210C03E7490108210D
:100B30000C01E76A010A0A0E02E77701101014029D
:100B4000F1970103090A03FD9B0108030C02F69EBD
:100B50000103040903FDA0010A1A0A00E7C10110FC
:100B6000191302E8F30108191304E80C0210191311
:100B700002E83E0211191301E8740210191301E88A
:100B8000A60211191301E8DC0210191302E80E0382
:100B900010191302E8400311191301E87603101924
:100BA0001301E8A80303130903EEB00303180903B4
:100BB000EEB90311111402F0DE0311091402F4F26C
:100BC0000311111402F017040F1A1303E74804204D
:100BD0001F2401E7C404161A1701E70C05131A179E
:100BE00003E74A05161A1901E79205141A1803E7D4
:100BF000D305121A1603E70E06111A1503E7460667
:100C0000181A1B01E79406131A1903E7D206031AF0
:100C10000A04E7DC060E1A1201E70A07141A180381
:100C2000E74B070F1A1403E77C07181A1E03E7CADD
:100C300007141A1A03E70B08191A1B01E75D0812BB
:100C40001A1703E79808191C1B01E7F008141A1972
:100C500003E73109141A1701E77209131A1601E79D
:100C6000B009131A1903E7EE09151A1701E7330A39
:100C7000201A2100E79B0A151A1701E7E00A171A44
:100C80001800E72B0B131A1601E7690B06210A025D
:100C9000E7820B0A1A0A00E7A30B06210A01E7BC48
:100CA0000B0D0D1002E8D20B150213FF05D80B0730
:100CB000050901E7DD0B11131301EE060C101A14E0
:100CC00002E73A0C10131201EE600C111A1401E73E
:100CD000980C10131301EEBE0C071A0A01E7D50C8D
:100CE000101B1301EE0B0D0F1A1302E73C0D031A34
:100CF0000802E7460D06220900E7600D101A1202ED
:100D0000E7940D031A0702E79E0D18131C02EED795
:100D10000D0F131302EEFB0D11131301EE240E1031
:100D2000191402EE560E11191401EE8C0E09130C53
:100D300002EEA20E0E131102EEC40E07170A01EA0C
:100D4000D90E0F131302EEFD0E11131100EE260F34
:100D500019131900EE620F10131100EE880F111B0A
:100D60001100EEC20F0F131101EEE60F08210C0166
:100D7000E7071002210903E7101008210C03E731EF
:100D8000100F071201F1FFFFFFFFFFFFE9203FFCFB
:100D9000E3F1F8FC7E3F1F8E82410001C380387072
:100DA000060E00C1803870070E0FFFF9FFFF3FFFEE
:100DB000E0E1C01C3803870070E00C183FFFF7FF2C
:100DC000FEFFFFC1C3803060060C01C3803870078E
:100DD0000E00C18003000FC03FF03FF87B3CF31CC6
:100DE000E30EE30EE30EE300E300F3007B007F80FD
:100DF0001FF007FC037E030F0307E307E307E30786
:100E0000E30F733E7FFC3FF80FE003000300030095
:100E100000000C007800E00FF00600FFC070070E25
:100E200007007038380300C38018061C00E071C04A
:100E300003878C001FF8E0007F860001F870000037
:100E40000303C000387F800187FE001C387000C398
:100E500081C00E180600E0C03007070380701C3800
:100E60000380FFC03803FC0180078001F0007F8011
:100E70000FFC01E1E01C0E01C0E01C0E01E1E00EE0
:100E80003C00778007F0007C000FE003CF1C7879EE
:100E9000C703DCE01F8E00F8E00F0E0070F00F8734
:100EA000C3FC7FFDC3FF0E0FC0F0FFFFFA40060634
:100EB0000C0C1818383070707060E0E0E0E0E0E092
:100EC000E0E0E060707070303818180C0C0603C059
:100ED00060303038181C0C0E0E0E06070707070787
:100EE00007070707060E0E0E0C1C1838303060C0BE
:100EF0000C0300C3B7FFC781E0EC73884001800199
:100F0000800180018001800180FFFFFFFFFFFF0162
:100F100080018001800180018001800180FFF6DA7C
:100F2000C0FFFFFFFFF000C03018060180C0300C8A
:100F300006018060300C0300C06018060300C0305A
:100F400018060180C0300007E00FF81FFC3C3C7819
:100F50001E700E700EE007E007E007E007E007E014
:100F600007E007E007E007E007E00F700E700E787B
:100F70001E3C3C1FF81FF007E00303070F3FFFFF75
:100F800007070707070707070707070707070707F1
:100F9000070707E01FF83FFC7C3E700FF00FE007EB
:100FA000E00700070007000F001E003C00F803F0F8
:100FB00007C01F003C00380070006000E000FFFF29
:100FC000FFFFFFFF07F007FE07FF8783C380F38063
:100FD00039C01CE00E0007000F007F003F001FE03B
:100FE0000078001E00070003F001F800FE00770003
:100FF00073E0F8FFF83FF807F00000380038007899
:1010000000F800F801F803B8033807380E381C3828
:101010001838383870386038E038FFFFFFFFFFFFBE
:101020000038003800380038003800381FFF0FFF44
:101030008FFFC700038001C000E000700039F03F5F
:10104000FE1FFF8F83E700F0003C000E0007000347
:101050008001C000FC00EF0073C0F0FFF83FF8070C
:10106000E00003E00FF81FFC3C1E380E700E70000D
:101070006000E000E3E0EFF8FFFCFC3EF00EF00F54
:10108000E007E007E0076007700F700E3C3E3FFC92
:101090001FF807E0FFFFFFFFFFFF0006000E001C28
:1010A000001800380070006000E000C001C001803E
:1010B000038003800700070007000E000E000E00EB
:1010C0000C001C001C0007F00FFE0FFF8783C78079
:1010D000F38039C01CE00E780F1E0F07FF01FF03DD
:1010E000FFE3E0F9C01DC00FE003F001F800FC00D1
:1010F000F70073E0F8FFF83FF807F00007E01FF88B
:101100003FFC7C3C700EF00EE006E007E007E007D5
:10111000E00F700F783F3FFF1FF707C7000700067B
:10112000000E700E701C783C3FF81FF007C0FFF0F7
:1011300000000007FF80FFF000000007FFB6D600A8
:10114000008003C007E00FC03F807E00FC01F0007C
:10115000E0007C001FC001F8003F8007F0007E0027
:101160000F000180FFFFFFFFFFFFE0000000000015
:1011700003FFFFFFFFFFFF80800070003E000FE0D5
:1011800000FC001FC003F8003F0007800FC01F8055
:101190007F00FC01F803F001C0008000000FC07F59
:1011A000E1FFE3C3EF01FC01F803F007000E003894
:1011B00000F007C01F007C00E003C007000E001C09
:1011C00000000000000001C0038007000E000007BF
:1011D000F800003FFF0000FFFFC001F80FE003E050
:1011E00001F0078000F80F00003C1E00001E3C03C9
:1011F000E01E380FF38E781E3F0F70381F0770788F
:101200000F07E0700E07E0700E07E0E00E07E0E069
:101210001C07E0E01C0EE0E01C0EE0E0381CF07063
:10122000783C7078FC78783FDFF0381F0FC03C00C6
:1012300000001F0000000F80000007F00E0001FFFB
:10124000FE00007FFE00001FF00000F80003E00039
:101250000FC0007F0001DC000778003CE000E38065
:10126000038F001E1C00707001C1E00E0380380E59
:1012700000E03C07FFF01FFFE0FFFF83C00E0E0001
:101280003C7800F1E001C70007BC001EF0003B8085
:1012900000F0FFFC1FFFE3FFFE7003CE003DC00324
:1012A000B80077000EE001DC0073801E7FFF8FFF27
:1012B000F1FFFF3800F7000EE000FC001F8003F094
:1012C000007E000FC003F800F7FFFCFFFF1FFF8048
:1012D00000FF000FFF00FFFE07E07C3E0078F000FB
:1012E000E78003DC000770000380000E0000380078
:1012F00000E0000380000E0000380000E0001DC088
:1013000000770003DE000E3C0078F803C1F81F03ED
:10131000FFF803FFC003F800FFF80FFFE0FFFF0E28
:1013200000F8E003CE001CE000EE000EE000FE003E
:1013300007E0007E0007E0007E0007E0007E000777
:10134000E0007E000FE000EE000EE001EE003CE069
:101350000F8FFFF0FFFE0FFF80FFFFBFFFEFFFFBD0
:101360008000E00038000E00038000E00038000E2E
:101370000003FFFEFFFFBFFFEE00038000E0003828
:10138000000E00038000E00038000E0003FFFFFFA6
:10139000FFFFFFF0FFFFFFFFFFFFFC000E00070055
:1013A000038001C000E000700038001FFFCFFFE79E
:1013B000FFF38001C000E000700038001C000E0048
:1013C0000700038001C000E000700000007F800380
:1013D000FFE007FFF80F80FC1E003E3C000E780087
:1013E0000F700007700000E00000E00000E0000067
:1013F000E003FFE003FFE003FFE00007F0000770F9
:10140000000770000F78000F3C001F1E003F0FC048
:10141000F707FFE703FFC300FF03E000FC001F80A6
:1014200003F0007E000FC001F8003F0007E000FC61
:10143000001F8003FFFFFFFFFFFFFFF8003F0007D3
:10144000E000FC001F8003F0007E000FC001F800E8
:101450003F0007E000FC001CFFFFFFFFFFFFFFFF56
:10146000FFFC001C007001C007001C007001C007D9
:10147000001C007001C007001C007001C007001FA5
:10148000807E01F807E01FC0F7879FFE3FF03F0016
:10149000E001EE003CE0078E00F0E01E0E03E0E00D
:1014A0007C0E0F80E1F00E1E00E3C00E7C00EFE02A
:1014B0000FCE00F8F00F0780E03C0E03C0E01E0ED8
:1014C00000F0E00F0E0078E003CE003CE001EE00FB
:1014D0000FE001C0038007000E001C003800700000
:1014E000E001C0038007000E001C0038007000E01F
:1014F00001C0038007000E001C0038007FFFFFFFC3
:10150000FFFCF8001FF8001FF8001FFC003FFC0064
:101510003FFC003FEE0077EE0077EE0077E700E754
:10152000E700E7E700E7E381C7E381C7E381C7E1BD
:10153000C387E1C387E1C387E0E707E0E707E0E7A8
:1015400007E07E07E07E07E07E07E03C07E03C071F
:10155000F0007F0007F8007FC007FC007FE007EF86
:10156000007E7007E7807E3C07E1C07E1E07E0E05A
:101570007E0F07E0787E0387E03C7E01E7E00E7E89
:1015800000F7E007FE003FE003FE001FE001FE0061
:101590000F007F0001FFF001FFFC01F01F01E003DD
:1015A000C1E000F1E0003CE0000E700007700003B5
:1015B000F80000FC00007E00003F00001F80000FCC
:1015C000C00007E00003B800039C0001CF0001E366
:1015D000C001E0F001E03E03E00FFFE003FFE000A8
:1015E0003F8000FFFC3FFF8FFFF3803EE003F800E9
:1015F0007E001F8007E001F8007E003F801EFFFF95
:101600003FFF8FFFC38000E00038000E0003800022
:10161000E00038000E00038000E000380000007F8A
:101620000001FFF001FFFC01F01F01E003C1E00039
:10163000F1E0003CE0000E700007700001F80000CF
:10164000FC00007E00003F00001F80000FC000076C
:10165000E00007B800039C0001CF0039E3C01FE0A1
:10166000F007E03E03F00FFFFC03FFEE003F838036
:101670000000C0000020FFFE0FFFF8FFFFCE003C7F
:10168000E001EE000EE000EE000EE000EE000EE0E5
:1016900001CE003CFFFF8FFFF0FFFF8E003CE0011A
:1016A000EE000EE000EE000EE000EE000EE000EEB8
:1016B000000EE000FE000F03FC00FFF01FFF83E0C0
:1016C0007C3801E7000E7000E70000700007800022
:1016D0003E0001FE000FFE003FF8003FE0003E002C
:1016E00000F00007E0007E0007F00077800E7C032A
:1016F000E3FFFC1FFF803FC0FFFFFFFFFFFFFF80F6
:1017000070000E0001C0003800070000E0001C005F
:1017100003800070000E0001C0003800070000E0E8
:10172000001C0003800070000E0001C0003800079C
:101730000000E0001C00E000FC001F8003F0007EC1
:10174000000FC001F8003F0007E000FC001F80030D
:10175000F0007E000FC001F8003F0007E000FC0031
:101760001F8003F0007F001EF0079F01F1FFFC1FA8
:10177000FE007F00E0007F8003FC001CE001E780AA
:101780000F3C0070E00787803C1C01C0E00E078022
:10179000E01C0700E0380783801C1C00E0E0078E97
:1017A000001C7000E38007B8001DC000EE0007E0D9
:1017B000001F0000F8000380007003C00F7003C01A
:1017C0000F7803E00F7803E00E3807E00E3807F0DB
:1017D0001E3C07701E3C07701C1C0E701C1C0E3833
:1017E0003C1C0E383C1E1E38380E1C38380E1C1C93
:1017F000380E1C1C780F3C1C7007380E7007380E12
:101800007007380E7007700EE003F007E003F00772
:10181000E003F007E003E003C001E003C001E003E0
:10182000C0F0007BC0078F00387803C1E03C07811F
:10183000C03C1E00F1E0038E001EF0007F0001F0AE
:10184000000F80007C0007F0003B8003DE003C7846
:1018500001C1C01E0F01E03C0E00E0F0078F001E2A
:101860007000F78003C0F0003CF00078F001E1E088
:101870000381E00F01C01C03C07803C1E00783802F
:10188000078F00071C000F78000EE0000F80001F7C
:1018900000001C0000380000700000E00001C000E3
:1018A0000380000700000E00001C000038000070DC
:1018B000007FFFEFFFFDFFFF8000F0003C000F8086
:1018C00001E00078001E00078000F0003C000F00DF
:1018D00003C00078001E00078001E0007C000F00BC
:1018E00003C000F0003E0007FFFFFFFFFFFFFCFF0B
:1018F000FFF8E38E38E38E38E38E38E38E38E38EDC
:1019000038E38E38E38FFFFCC030060180600C03A3
:1019100000C018060180200C03004018060180302A
:101920000C030060180600C030FFFFC71C71C71C05
:1019300071C71C71C71C71C71C71C71C71C71C7F84
:10194000FFFC07007803C03F01D80CE0E3061C70E1
:10195000E383181DC06C0380FFFFFFFFFFC0F0F0A2
:10196000E0E0E007F00FFC0FFF0F03C700E000709E
:101970000038001C00FE0FFF1FF39F01CF00E7009F
:10198000738079E0FC7FEF9FE3C7E1E0E000E000D7
:10199000E000E000E000E000E000E3E0EFF8FFFC42
:1019A000FC3EF81EF00EE00FE007E007E007E0075E
:1019B000E007E007F00EF81EFC3CEFFCEFF8E3E078
:1019C00007F01FF83FFC3C1E780E7007E000E000B7
:1019D000E000E000E000E000E0077007780E7C1E09
:1019E0003FFC1FF807E000038001C000E00070002A
:1019F00038001C000E0FC71FFB9FFFDF07EF01F72A
:101A0000007F803F800FC007E003F001F800FC007A
:101A100077007BC07DF07E7FFB1FF983F0C007E07D
:101A20001FF83FFC7C1E700E6006E007FFFFFFFF03
:101A3000FFFFE000E000E0007007780E3C1E3FFC76
:101A40001FF807E00E3CF9C3870E7FFFFCE1C38758
:101A50000E1C3870E1C3870E1C387007C71FF73F94
:101A6000FF3C3F780F700FE007E007E007E007E07A
:101A700007E007E007700F780F7C3F3FF71FE7078D
:101A8000C700070007000E700E781E3FFC1FF80706
:101A9000E0E001C0038007000E001C00380071F870
:101AA000E7FDDFFBF0FFC0FF00FC01F803F007E0FB
:101AB0000FC01F803F007E00FC01F803F007E00F1D
:101AC000C01CFFF007FFFFFFFFFFFFFC1C71C700FA
:101AD00000071C71C71C71C71C71C71C71C71C7122
:101AE000C71C73FFFBC0E000E000E000E000E00086
:101AF000E000E000E03CE078E0F0E1E0E3C0E78017
:101B0000EF00EF80FF80FBC0F1E0E0E0E0F0E0708C
:101B1000E078E03CE01CE01EE00EFFFFFFFFFFFF6F
:101B2000FFFFFFFCE3E0F8E7F1FEEFFBFEF87F0FBD
:101B3000F03E07F01C07E01C07E01C07E01C07E074
:101B40001C07E01C07E01C07E01C07E01C07E01C6A
:101B500007E01C07E01C07E01C07E01C07E3F1CFCF
:101B6000FBBFF7E1FF81FE01F803F007E00FC01FA4
:101B7000803F007E00FC01F803F007E00FC01F80EB
:101B80003807F00FFE0FFF8783C780F3803B801F6D
:101B9000C007E003F001F800FC007E003B8039E064
:101BA0003C783C3FFE0FFE01FC00E3E0E7F8EFFC71
:101BB000FC3EF81EF00EE00FE007E007E007E0074C
:101BC000E007E007F00EF81EFC3EFFFCEFF8E3E054
:101BD000E000E000E000E000E000E00007E18FFC52
:101BE000CFFF6783F780FB803FC01FC007E003F093
:101BF00001F800FC007E003B803DE03EF83F3FFFE7
:101C00008FFDC1F8E000700038001C000E000700D6
:101C10000380E3F7FBFF8F078381C0E070381C0E61
:101C2000070381C0E07038000FC0FF87FF3C1EE053
:101C30003B800E003C007F00FF80FF807F003F80E4
:101C40007E01FC1F7FF8FFC1FC003870E1CFFFFF71
:101C50009C3870E1C3870E1C3870E1C3E7C780E091
:101C60000FC01F803F007E00FC01F803F007E00F6B
:101C7000C01F803F007E00FC03FC0FFC3F7FEEFF97
:101C80009C7E387003B8039C01C700E380E1C070FC
:101C9000703838381C1C070E038E01C70077003BD4
:101CA000801DC007C003E001F0007000F01C03B805
:101CB0001F03DC0F81CE07C0E783E071C3B870E17A
:101CC000DC3870EE1C1C630E0E71CE0738E7039CE7
:101CD0007380EC19807E0FC03F07E00F83F0078010
:101CE000F003C07801E03C007007380E3C1C1C1C5F
:101CF0000E380F70077003E003C001C003E007E077
:101D000007700E781E381C1C381E780E700770077E
:101D100038039C01C701C380E1C070707038381C63
:101D20003C071C038E01CE0077003B801F8007C05C
:101D300003E001E0007000380038001C001E000EB7
:101D4000003F001F000F00007FFCFFF9FFF000E0E4
:101D500003800E003C00F003C00F001C007001E087
:101D600007801E007800FFFFFFFFFFF8070F1F1C12
:101D70001C1C1C1C1C1C1C1C1C1C38F8E0F8381CEF
:101D80001C1C1C1C1C1C1C1C1C1C1F0F07FFFFFF09
:101D9000FFFFFFFFFFC0E0F0F83838383838383838
:101DA000383838381C1F071F1C383838383838384E
:101DB00038383838F8F0E03800FC03FC1F3E3C1F90
:101DC000E01F801E0000000000003E5B4F5B3E3EB7
:101DD0006B4F6B3E1C3E7C3E1C183C7E3C181C57D7
:101DE0007D571C1C5E7F5E1C00183C1800FFE7C37B
:101DF000E7FF0018241800FFE7DBE7FF30483A064A
:101E00000E2629792926407F050507407F05253FB5
:101E10005A3CE73C5A7F3E1C1C08081C1C3E7F14A1
:101E2000227F22145F5F005F5F06097F017F0066EB
:101E300089956A606060606094A2FFA29408047E45
:101E4000040810207E201008082A1C08081C2A08F4
:101E5000081E101010100C1E0C1E0C30383E3830AE
:101E6000060E3E0E06000000000000005F000000AD
:101E700007000700147F147F14242A7F2A122313DB
:101E800008646236495620500008070300001C22EF
:101E900041000041221C002A1C7F1C2A08083E0821
:101EA0000800807030000808080808000060600022
:101EB00020100804023E5149453E00427F40007216
:101EC000494949462141494D331814127F1027458D
:101ED0004545393C4A4949314121110907364949AB
:101EE0004936464949291E000014000000403400CC
:101EF0000000081422411414141414004122140880
:101F000002015909063E415D594E7C1211127C7F37
:101F1000494949363E414141227F4141413E7F4945
:101F20004949417F090909013E414151737F080830
:101F3000087F00417F41002040413F017F0814227B
:101F4000417F404040407F021C027F7F0408107F99
:101F50003E4141413E7F090909063E4151215E7FD4
:101F600009192946264949493203017F01033F40A7
:101F700040403F1F2040201F3F4038403F6314082F
:101F8000146303047804036159494D43007F4141C0
:101F9000410204081020004141417F040201020473
:101FA0004040404040000307080020545478407FE0
:101FB000284444383844444428384444287F38541A
:101FC00054541800087E090218A4A49C787F0804C1
:101FD000047800447D40002040403D007F102844AC
:101FE0000000417F40007C047804787C0804047879
:101FF0003844444438FC1824241818242418FC7C41
:1020000008040408485454542404043F44243C4025
:1020100040207C1C2040201C3C4030403C44281088
:1020200028444C9090907C4464544C4400083641C1
:10203000000000770000004136080002010204029F
:102040003C2623263C1EA1A161123A4040207A384A
:1020500054545559215555794122545478422155AB
:1020600054784020545579400C1E527212395555FF
:102070005559395454545939555454580000457CD5
:10208000410002457D420001457C407D1211127DD8
:10209000F0282528F07C545545002054547C547C6D
:1020A0000A097F4932494949323A4444443A324A5A
:1020B0004848303A4141217A3A42402078009DA078
:1020C000A07D3D4242423D3D4040403D3C24FF24F6
:1020D00024487E4943662B2FFC2F2BFF0929F6202D
:1020E000C0887E090320545479410000447D41306A
:1020F00048484A32384040227A007A0A0A727D0DF6
:1021000019317D2629292F28262929292630484DAD
:102110004020380808080808080808382F10C8ACFC
:10212000BA2F102834FA00007B000008142A142269
:1021300022142A14085500550055AA55AA55AAFF7D
:1021400055FF55FF000000FF00101010FF00141491
:1021500014FF001010FF00FF1010F010F014141402
:10216000FC001414F700FF0000FF00FF1414F40437
:10217000FC141417101F10101F101F1414141F002C
:10218000101010F0000000001F101010101F101091
:102190001010F010000000FF1010101010101010A0
:1021A00010FF10000000FF140000FF00FF00001FE0
:1021B00010170000FC04F414141710171414F4047E
:1021C000F40000FF00F714141414141414F700F7AB
:1021D000141414171410101F101F141414F41410D6
:1021E00010F010F000001F101F0000001F1400006E
:1021F00000FC140000F010F01010FF10FF14141475
:10220000FF141010101F00000000F010FFFFFFFF70
:10221000FFF0F0F0F0F0FFFFFF0000000000FFFF14
:102220000F0F0F0F0F3844443844FC4A4A4A347E9B
:1022300002020606027E027E02635549416338446B
:10224000443C04407E201E2006027E020299A5E73F
:10225000A5991C2A492A1C4C7201724C304A4D4DDA
:10226000303048784830BC625A463D3E49494900C2
:102270007E0101017E2A2A2A2A2A44445F444440DE
:10228000514A444040444A51400000FF0103E0806D
:10229000FF000008086B6B083612362436060F095B
:1022A0000F06000018180000001010003040FF0159
:1022B00001001F01011E00191D1712003C3C3C3C8F
:1022C00000000000000000000800020100000304FC
:1022D00007000000000000000000000000240027AC
:1022E000002A0001020408102040800102040810A6
:1022F0002001020408102000000000250028002B07
:10230000000404040404040404020202020202039E
:1023100003030303033C03A30020007E001D860D7E
:10232000ED0A20007E002A005F2911241FBECFEF96
:10233000D8E0DEBFCDBF12E0A0E0B1E0ECE6F8E609
:1023400002C005900D92AC34B107D9F727E0ACE498
:10235000B2E001C01D92A133B207E1F711E1C5E976
:10236000D1E104C02197FE010E946B33C439D1072B
:10237000C9F70E94BA2B0C9434340C9400002091BD
:10238000070530910805009789F0232B51F420911F
:10239000FC043091FD042A5F3F4F3093FD042093ED
:1023A000FC0490930805809307050895232BC9F337
:1023B0002091FC043091FD0426503109EECF2F927C
:1023C0003F924F925F926F927F928F929F92AF92C5
:1023D000BF92CF92DF92EF92FF920F931F93CF9312
:1023E000DF93CDB7DEB76D970FB6F894DEBF0FBEA3
:1023F000CDBF3A8729871C870B87FE86ED86D88A52
:10240000CF86F90171836083F80151834083F6011F
:1024100011821082F70111821082209007053090FE
:102420000805209105052C83F09002052F2D30E042
:10243000388F2F8B36E0F39E500111242091F60443
:102440003091F7043E832D83E090030538E0E39E4E
:102450006001112491012C5F3F4F3A8B298B2E5F35
:102460003F4F3C8B2B8B245031093A8F298F2A5FA9
:102470003F4F3B832A8398878F8344244A94542C6C
:10248000AFEFBFEF8FEF9FE79C8F8B8F0FEF1FE7B3
:10249000EF81F8858191F887EF83882309F4C4C020
:1024A0002114310409F48BC08A3051F4EA81FB8194
:1024B00084918E9D400D511D112470E060E0E8CFA5
:1024C0008D3031F3E989FA899491EB89FC89249163
:1024D0008917F0F22817E0F2E98DFA8D25913491F1
:1024E000891BF7E08F9F200D311D1124F9013296D1
:1024F00084918983319694919D8B319684918E8BB2
:10250000319684912A5F3F4FF901F491FD8F2C8120
:10251000222301F13981632E712C680E711C87FD15
:102520007A942F89388D629E4001639E900C729E32
:10253000900C1124860E971E2D813E812815390599
:102540004CF4EA81FB8194919E9D400D511D112414
:1025500070E060E02F2D382F3203C0011124860F68
:10256000971F2E2D3D8D3203F00111249F01240F62
:10257000351F801791070CF48C01EB8DFC8D2E1705
:102580003F0714F43C8F2B8FF981FF9D800D911D27
:1025900011240197A817B9070CF4DC018D898E9DD1
:1025A000200D311D112421503109421653060CF41F
:1025B00029019E899F9D600D711D112469CF8A306C
:1025C00019F44C0D5D1D79CF8D3009F461CF2C814C
:1025D000222361F0C501860F971F2D813E812817A8
:1025E000390724F44C0D5D1D70E060E09501260F65
:1025F000371FC9010197A817B9070CF4DC01C60100
:10260000840F951F0197481659060CF42C0160178A
:1026100071070CF48B018B8D9C8D4817590714F4AE
:102620005C8F4B8FB90134CFA017B1075CF0E985FF
:10263000FA8511830083A01BB10B1196ED85FE85F1
:10264000B183A0832B8D3C8D421653066CF0EB8535
:10265000FC8531832083421A530AFFEF4F1A5F0A29
:10266000EF85F889518240826D960FB6F894DEBFEF
:102670000FBECDBFDF91CF911F910F91FF90EF90D3
:10268000DF90CF90BF90AF909F908F907F906F9092
:102690005F904F903F902F90089590E0FC01EB5396
:1026A000FD4D2491FC01ED51FD4D3491FC01EF5F96
:1026B000FC4DE491EE23C9F0222339F0233001F1DF
:1026C000A8F4213019F1223029F1F0E0EE0FFF1FBC
:1026D000E950FD4DA591B4918FB7F894EC9161113B
:1026E00026C030953E233C938FBF08952730A9F034
:1026F0002830C9F0243049F7809180008F7D03C0D5
:10270000809180008F7780938000DFCF84B58F77B2
:1027100084BDDBCF84B58F7DFBCF8091B0008F77F8
:102720008093B000D2CF8091B0008F7DF9CF3E2B47
:10273000DACF3FB7F89480914D0490914E04A09168
:102740004F04B091500426B5A89B05C02F3F19F047
:102750000196A11DB11D3FBFBA2FA92F982F882721
:10276000BC01CD01620F711D811D911D42E0660FFC
:10277000771F881F991F4A95D1F708958F929F92CE
:10278000AF92BF92CF92DF92EF92FF926B017C01EA
:102790000E9499134B015C01C114D104E104F104BE
:1027A000B9F00E949913681979098A099B09683E52
:1027B00073408105910580F321E0C21AD108E10838
:1027C000F10888EE880E83E0981EA11CB11CE4CFAE
:1027D000FF90EF90DF90CF90BF90AF909F908F9041
:1027E0000895E0910A05F0910B0580819091120502
:1027F000892B8083E0910E05F0910F0580819091E7
:102800001405892B8083E0911005F09111058081DA
:1028100090911505892B808380911A05882371F08A
:1028200060E00E944D1362E070E080E090E00E9462
:10283000BE1361E080911A050E944D13E0910A05D4
:10284000F0910B0580819091160589238083E0919A
:102850000C05F0910D0580819091170589238083E7
:102860008BB183708BB985B18C7F85B9E0910E05F2
:10287000F0910F0580819091180589238083E09164
:102880000E05F0910F05808190911405892B8083AE
:1028900083E0E0910E05F0910F05908120911805DD
:1028A00092239083E0910E05F0910F059081209185
:1028B0001405922B9083815061F7E0910A05F09105
:1028C0000B05808190911205892B80830895AF922A
:1028D000BF92CF92DF92EF92FF920F931F93CF930D
:1028E000DF936C017B018B01040F151FEB015E016F
:1028F000AE18BF08C017D10759F06991D601ED9104
:10290000FC910190F081E02DC6010995892B79F7A2
:10291000C501DF91CF911F910F91FF90EF90DF9054
:10292000CF90BF90AF900895FC01538D448D252F1B
:1029300030E0842F90E0821B930B541710F0CF9659
:10294000089501970895FC01918D828D981761F08B
:10295000A28DAE0FBF2FB11D5D968C91928D9F5FA2
:102960009F73928F90E008958FEF9FEF0895FC0181
:10297000918D828D981731F0828DE80FF11D858D34
:1029800090E008958FEF9FEF0895FC01918D228DC7
:10299000892F90E0805C9F4F821B91098F7399274C
:1029A000089581E594E00E94C51421E0892B09F483
:1029B00020E0822F089580E090E0892B29F00E948A
:1029C000D11481110C9400000895FC01A48DA80F6E
:1029D000B92FB11DA35ABF4F2C91848D90E0019661
:1029E0008F739927848FA689B7892C93A089B18981
:1029F0008C91837080648C93938D848D981306C022
:102A00000288F389E02D80818F7D80830895EF9285
:102A1000FF920F931F93CF93DF93EC0181E0888F98
:102A20009B8D8C8D98131AC0E889F989808185FF68
:102A300015C09FB7F894EE89FF896083E889F9890A
:102A400080818370806480839FBF81E090E0DF910C
:102A5000CF911F910F91FF90EF900895F62E0B8D5F
:102A600010E00F5F1F4F0F731127E02E8C8D8E111A
:102A70000CC00FB607FCFACFE889F989808185FF81
:102A8000F5CFCE010E94E514F1CFEB8DEC0FFD2FB9
:102A9000F11DE35AFF4FF0829FB7F8940B8FEA893C
:102AA000FB8980818062CFCFCF93DF93EC01888D4B
:102AB0008823B9F0AA89BB89E889F9898C9185FDB9
:102AC00003C0808186FD0DC00FB607FCF7CF8C9147
:102AD00085FFF2CF808185FFEDCFCE010E94E51406
:102AE000E9CFDF91CF910895CF92DF92EF92FF92DD
:102AF000FC01A48DB58D8C9190A589238C93A68D16
:102B0000B78D8C9191A589238C938BB1837088624A
:102B10008BB985B18C7F6370682B65B9A0A1B1A119
:102B20008C9192A589238C93A0A1B1A18C9196A19F
:102B3000892B8C93A68DB78D8C9195A1892B8C9325
:102B400083E290E0DC011197F1F77BB1C52EDD2423
:102B5000EE24FF2473706C2D6C7F762B7BB965B1EE
:102B60006C7F7C2D7370672B65B9A0A1B1A16C91AE
:102B700072A567236C93A0A1B1A16C9176A1672B7C
:102B80006C93DC011197F1F77BB16A01EE24FF240D
:102B900073706C2D6C7F762B7BB965B16C7F7C2D4F
:102BA0007370672B65B9A0A1B1A16C9172A5672361
:102BB0006C93A0A1B1A16C9176A1672B6C93DC0101
:102BC0001197F1F77BB1C32ED42EE52EFF2473703D
:102BD0006C2D6C7F762B7BB965B16C7F7C2D73700F
:102BE000672B65B9A0A1B1A16C9172A567236C9305
:102BF000A0A1B1A16C9176A1672B6C930197F1F71D
:102C00008BB18370922F9C7F892B8BB985B18C7F80
:102C10002370282B25B9A0A1B1A18C9192A589235D
:102C20008C93A0A1B1A18C9196A1892B8C93A48D9A
:102C3000B58D8C9194A1892B8C93FF90EF90DF90B0
:102C4000CF900895FC01A68DB78D8C9191A5892315
:102C50008C938BB18370962F9C7F892B8BB985B118
:102C60008C7F6370682B65B9A0A1B1A18C9192A5EE
:102C700089238C93A0A1B1A18C9196A1892B8C93CF
:102C8000A68DB78D8C9195A1892B8C938BB1837078
:102C9000932F9C7F892B8BB985B18C7F3370382B18
:102CA00035B9A0A1B1A18C9192A589238C93A0A143
:102CB000B1A18C9196A1892B8C93A68DB78D8C9107
:102CC00091A589238C938BB18370942F9C7F892B42
:102CD0008BB985B18C7F4370482B45B9A0A1B1A1B8
:102CE0008C9192A589238C93A0A1B1A18C9196A1DE
:102CF000892B8C93A68DB78D8C9195A1892B8C9364
:102D00008BB18370922F9C7F892B8BB985B18C7F7F
:102D10002370282B25B9A0A1B1A18C9192A589235C
:102D20008C93A0A1B1A18C9196A1892B8C9308952D
:102D3000FC01A68DB78D8C9191A589238C938BB1C5
:102D40008370972F9C7F892B8BB985B18C7F737093
:102D5000782B75B9A0A1B1A18C9192A589238C93F0
:102D6000A0A1B1A18C9196A1892B8C938BB183707A
:102D7000962F9C7F892B8BB985B18C7F6370682BD4
:102D800065B9A0A1B1A18C9192A589238C93A0A132
:102D9000B1A18C9196A1892B8C93A68DB78D8C9126
:102DA00095A1892B8C938BB18370952F9C7F892B58
:102DB0008BB985B18C7F5370582B55B9A0A1B1A1A7
:102DC0008C9192A589238C93A0A1B1A18C9196A1FD
:102DD000892B8C938BB18370942F9C7F892B8BB91B
:102DE00085B18C7F4370482B45B9A0A1B1A18C91CE
:102DF00092A589238C93A0A1B1A18C9196A1892B36
:102E00008C930895FC01A68DB78D8C9191A5892393
:102E10008C938BB18370962F9C7F892B8BB985B156
:102E20008C7F6370682B65B9A0A1B1A18C9192A52C
:102E300089238C93A0A1B1A18C9196A1892B8C930D
:102E4000A68DB78D8C9195A1892B8C938BB18370B6
:102E5000942F9C7F892B8BB985B18C7F4370482B35
:102E600045B9A0A1B1A18C9192A589238C93A0A171
:102E7000B1A18C9196A1892B8C930895AF92BF92AA
:102E8000CF92DF92EF92FF920F931F93CF93DF9336
:102E9000FC01A48DB58D8C9190A589238C93A68D72
:102EA000B78D8C9191A589238C93838D823009F005
:102EB000C6C08BB183708C628BB985B18C7F85B9AC
:102EC000A0A1B1A18C9192A589238C93A0A1B1A1BD
:102ED0008C9196A1892B8C93A68DB78D8C9195A101
:102EE000892B8C938BB1D72FDC7F83708D2B8BB983
:102EF00085B1C72FC3708C7F8C2B85B9A0A1B1A1E0
:102F00008C9192A589238C93A0A1B1A18C9196A1BB
:102F1000892B8C938BB1962F9C7FB92E8370892B34
:102F20008BB985B1A62FA370AA2E8C7F8A2B85B969
:102F300000A111A1D8018C9192A589238C9300A1A5
:102F400011A1D8018C9196A1892B8C932150310924
:102F50004109510969017A0186E0F694E794D79412
:102F6000C7948A95D1F77613A6C0B1E0CB1AD108E1
:102F700008F484C060E1A0A1B1A17C91C2A57C232A
:102F80007C93A0A1B1A17C91C6A17C2B7C93A0A134
:102F9000B1A17C91C2A57C237C93A0A1B1A17C911D
:102FA000C6A17C2B7C93A0A1B1A17C91C2A57C235E
:102FB0007C93A0A1B1A17C91C6A17C2B7C93A0A104
:102FC000B1A17C91C2A57C237C93A0A1B1A17C91ED
:102FD000C6A17C2B7C93A0A1B1A17C91C2A57C232E
:102FE0007C93A0A1B1A17C91C6A17C2B7C93A0A1D4
:102FF000B1A17C91C2A57C237C93A0A1B1A17C91BD
:10300000C6A17C2B7C93A0A1B1A17C91C2A57C23FD
:103010007C93A0A1B1A17C91C6A17C2B7C93A0A1A3
:10302000B1A17C91C2A57C237C93A0A1B1A17C918C
:10303000C6A17C2B7C93615009F09DCF96CF811166
:103040001AC08BB183708BB985B18C7F85B9A0A173
:10305000B1A18C9192A589238C93A0A1B1A18C914F
:1030600096A1892B8C938BB1837080628BB985B1CB
:103070008C7F826024CF8330B1F71BCF2F73215018
:1030800008F403C1A0A1B1A18C9192A589238C93CE
:10309000A0A1B1A18C9196A1892B8C93A0A1B1A1E3
:1030A0008C9192A589238C93A0A1B1A18C9196A11A
:1030B000892B8C93E4CF91E0C91AD10808F4B5C0EC
:1030C00070E16BB163706D2B6BB965B16C7F6C2B6C
:1030D00065B900A111A1D8016C91F2A46F216C9384
:1030E00000A111A1D8016C91F6A06F296C936BB16E
:1030F00063706B296BB965B16C7F6A2965B900A1F2
:1031000011A1D8016C91F2A46F216C9300A111A1BF
:10311000D8016C91F6A06F296C936BB163706D2B25
:103120006BB965B16C7F6C2B65B900A111A1D80199
:103130006C91F2A46F216C9300A111A1D8016C9144
:10314000F6A06F296C936BB163706B296BB965B195
:103150006C7F6A2965B900A111A1D8016C91F2A414
:103160006F216C9300A111A1D8016C91F6A06F2979
:103170006C936BB163706D2B6BB965B16C7F6C2B0D
:1031800065B900A111A1D8016C91F2A46F216C93D3
:1031900000A111A1D8016C91F6A06F296C936BB1BD
:1031A00063706B296BB965B16C7F6A2965B900A141
:1031B00011A1D8016C91F2A46F216C9300A111A10F
:1031C000D8016C91F6A06F296C936BB163706D2B75
:1031D0006BB965B16C7F6C2B65B900A111A1D801E9
:1031E0006C91F2A46F216C9300A111A1D8016C9194
:1031F000F6A06F296C936BB163706B296BB965B1E5
:103200006C7F6A2965B900A111A1D8016C91F2A463
:103210006F216C9300A111A1D8016C91F6A06F29C8
:103220006C93715009F04DCF46CF2F73215068F148
:103230008BB183708D2B8BB985B18C7F8C2B85B92D
:1032400040A151A1DA018C9192A589238C9340A1D0
:1032500051A1DA018C9196A1892B8C938BB183704B
:103260008B298BB985B18C7F8A2985B940A151A161
:10327000DA018C9192A589238C9340A151A1DA01A6
:103280008C9196A1892B8C93D1CFA48DB58D8C91E7
:1032900094A1892B8C93DF91CF911F910F91FF9077
:1032A000EF90DF90CF90BF90AF900895CF93DF93D2
:1032B000EC01EC8DFD8D808198A589238083288584
:1032C00039852150310945E064E0CE010E94221683
:1032D0002A853B852150310949E068E0CE010E94F2
:1032E0002216EC8DFD8D80819CA1892B8083DF913E
:1032F000CF9108958F929F92AF92BF92CF92DF921B
:10330000EF92FF920F931F93CF93DF93EC017A011B
:103310006901EC8DFD8D808198A5892380838B8D3B
:10332000811171C08E89823009F44BC0833009F459
:103330005CC05A014B01813069F48FEE90E09C0132
:10334000201B310B4C01841A950A5B018601640134
:103350007B01B901AB0160E570E0CE010E949816D7
:10336000A60161E570E0CE010E949816A70162E512
:1033700070E0CE010E949816A80163E570E0CE01CE
:103380000E949816A40160E270E0CE010E94981697
:10339000A50161E270E0CE010E949816EC8DFD8DD2
:1033A00080819CA1892B8083DF91CF911F910F9108
:1033B000FF90EF90DF90CF90BF90AF909F908F9055
:1033C00008958FEE90E09C012C193D096C01C61AFE
:1033D000D70A8FE391E0AC01401B510B8C010E1911
:1033E0001F09580146017A01B4CF8FE391E09C0197
:1033F0002C193D095C01A61AB70A4A01680185012A
:10340000B7017901A7CF8130C9F49B0143E062E0A5
:10341000CE010E942216970147E066E0CE010E948D
:103420002216960145E064E0CE010E942216980122
:1034300049E068E0CE010E942216B0CF825082306F
:1034400008F0ACCFCB01770FAA0BBB0BDC0199279F
:1034500088279601DD0C440B550B282B392B4A2B62
:103460005B2B6AE2CE010E947415C701FF0CAA0B08
:10347000BB0BDC0199278827012E000C220B330B94
:10348000A9019801282B392B4A2B5B2B6BE2CE012B
:103490000E94741583CFAF92BF92CF92DF92EF92CA
:1034A000FF920F931F93CF93DF93EC017B016A018F
:1034B000B22EA32E77FD3BC057FD39C08885998574
:1034C00068177907A4F58A859B85481759077CF505
:1034D000EC8DFD8D808198A5892380838B8D811152
:1034E00045C08E89823071F18330C9F1813031F469
:1034F0008FEE90E0841B950B6B017C01A70160E2CD
:1035000070E0CE010E949816A60161E270E0CE0143
:103510000E9498164B2D5A2D62E270E0CE010E9457
:103520009816EC8DFD8D80819CA1892B8083DF9185
:10353000CF911F910F91FF90EF90DF90CF90BF90B0
:10354000AF9008958FEE90E09C01261B370B790118
:103550008FE391E09C01241B350B6901CFCF8FE3F2
:1035600091E0861B970B7A016C01C8CF813009F07E
:103570006CC0EE89E15040E0E33020F4F0E0E55E1D
:10358000FE4F408166E1CE010E940217970143E0A1
:1035900062E0CE010E942216960147E066E0CE016D
:1035A0000E942216EE8DFF8D808199A5892380834C
:1035B0008BB1837080628BB985B18C7F826085B955
:1035C000E8A1F9A180819AA589238083E8A1F9A1C6
:1035D00080819EA1892B8083EE8DFF8D80819DA1AE
:1035E000892B80838BB183709A2D9C7F892B8BB91B
:1035F00085B18C7F3A2D3370A32EA82AA5B8E8A1F7
:10360000F9A180819AA589238083E8A1F9A180810D
:103610009EA1892B80838BB183709B2D9C7F892BEE
:103620008BB985B18C7F9B2D9370B92EB82AB5B814
:10363000E8A1F9A180819AA589238083E8A1F9A155
:1036400080819EA1892B80836CCF8250823008F0CC
:1036500068CF0A851B8501501109288539852150BD
:103660003109CE010E947A19EC8DFD8D808198A5DB
:1036700089238083EE8DFF8D808199A589238083A6
:103680008BB183708C628BB985B18C7F85B9E8A1D1
:10369000F9A180819AA589238083E8A1F9A180817D
:1036A0009EA1892B8083EE8DFF8D80819DA1892B2A
:1036B00080838BB183709A2D9C7F892B8BB995B1B8
:1036C0009C7F2A2D2370A22EA92AA5B8E8A1F9A1D2
:1036D00080819AA589238083E8A1F9A180819EA198
:1036E000892B80838BB183709B2D9C7F892B8BB919
:1036F00095B19C7F3B2D3370B32EB92A98CFEF92B2
:10370000FF920F931F93CF93DF93EC017B018B8D7F
:10371000811135C08E898150833060F590E0FC01C5
:10372000E85EFE4F408150E0880F991FFC01EE5E7D
:10373000FE4F00811181EC8DFD8D808198A589233C
:10374000808360E270E0CE010E949816A80161E2D9
:1037500070E0CE010E94981620E03CE241E050E08B
:10376000B701CE01DF91CF911F910F91FF90EF90A4
:103770000C943E1710E000E050E040E0DCCF8150B8
:10378000833050F70A851B8501501109288539853A
:103790002150310950E040E070E060E0CE010E942D
:1037A0007A19DACF8F929F92AF92BF92CF92DF9227
:1037B000EF92FF920F931F93CF93DF93EC01F901E8
:1037C000D80147011E161F06ECF41A161B06D4F486
:1037D000A884B9846A157B05ACF48A859B85481753
:1037E000590784F47901E60EF71E9701215031093B
:1037F00037FD08C06801C40ED51E860101501109AD
:1038000017FF56C0DF91CF911F910F91FF90EF905E
:10381000DF90CF90BF90AF909F908F90089570E011
:1038200060E057FD33C06D012A153B0534F095016A
:10383000215031097501E61AF70A0817190734F003
:103840008C01015011096C01C41AD50ACE010E94E5
:103850007A199701D6010E945C339B01AC01B40137
:10386000CE010E943E178B8D811113C00A851B85E6
:1038700001501109288539852150310950E040E077
:1038800070E060E0CE010E947A19BCCF50E040E0C9
:10389000CBCFCE01DF91CF911F910F91FF90EF9091
:1038A000DF90CF90BF90AF909F908F900C9456195F
:1038B00077FDB5CF7F01B5CFCF92DF92EF92FF9228
:1038C0000F931F93CF93DF93EC01690178011216D8
:1038D00013060CF03FC077FD3DC0888599856817B9
:1038E0007907C4F58A859B85481759079CF5240FED
:1038F000351F89010150110917FD2CC057FF03C066
:10390000690150E040E00817190734F08C010150BC
:1039100011096C01C41AD50A9B01CE010E947A19C3
:103920009601DD0C440B550BB701CE010E943E17EA
:103930008B8D811118C00A851B85015011092885BE
:1039400039852150310950E040E070E060E0CE015F
:103950000E947A19DF91CF911F910F91FF90EF9004
:10396000DF90CF900895CE01DF91CF911F910F91FD
:10397000FF90EF90DF90CF900C945619CF92DF928A
:10398000EF92FF920F931F93CF93DF93EC016901A6
:103990007801121613060CF040C057FD3EC08A8510
:1039A0009B8548175907CCF588859985681779074D
:1039B000A4F5F901E60FF71F9F012150310937FDEA
:1039C0002CC077FF03C06F0170E060E02817390753
:1039D00034F09C01215031096C01C61AD70A8A01C2
:1039E000CE010E947A199601DD0C440B550BB701EC
:1039F000CE010E943E178B8D811118C00A851B8550
:103A000001501109288539852150310950E040E0E5
:103A100070E060E0CE010E947A19DF91CF911F9192
:103A20000F91FF90EF90DF90CF900895CE01DF913E
:103A3000CF911F910F91FF90EF90DF90CF900C945A
:103A400056190895FC016370668B848195812681E7
:103A50003781613039F0633029F09187808733876F
:103A60002287089531872087938782870895EF9270
:103A7000FF920F931F93CF93DF93EC010E94221DBF
:103A8000EC8DFD8D808198A5892380838B8D81119C
:103A900021C0EE89E15040E350E1E33038F4F0E03A
:103AA000EE0FFF1FE25EFE4F4081518163E070E048
:103AB000CE010E9498160A851B85015011092885A0
:103AC00039852150310950E040E070E060E0CE01DE
:103AD0000E947A198B8D813081F4EE89E15040E0AB
:103AE000E33020F4F0E0E55EFE4F408166E1CE0178
:103AF0000E940217CE010E9456198B8D8230F1F47C
:103B00008E89813009F449C008F444C08230E1F163
:103B10008330E9F14E2D66E3CE010E9402170A853B
:103B20001B8501501109288539852150310950E044
:103B300040E070E060E0CE010E947A198B8D833006
:103B4000E1F48E898130A1F180F1823049F1833036
:103B500049F14F2D66E3CE010E9402170A851B85AD
:103B600001501109288539852150310950E040E084
:103B700070E060E0CE010E947A19DF91CF911F9131
:103B80000F91FF90EF90089568E4E62EC3CF58E2BE
:103B9000E52EC0CF48E8E42EBDCF38EEE32EBACFF5
:103BA000F12CD7CF20E6F22ED4CF90ECF92ED1CF46
:103BB00080EAF82ECECF2F923F924F925F926F9273
:103BC0007F928F929F92AF92BF92CF92DF92EF92AD
:103BD000FF920F931F93CF93DF93CDB7DEB76A9712
:103BE0000FB6F894DEBF0FBECDBF9A8F898F7A8350
:103BF00069834A01D22E18870F833701BC2CDC0160
:103C000059962D913C915A972115310509F015C10E
:103C100018968D919C911997681779070CF0D7C168
:103C20001A968D919C91481759070CF0D0C14C2CD5
:103C3000512CB6E0CB9E600D711D11247C876B87E3
:103C4000161617060CF0C3C1EA2DF0E0FA87E987D3
:103C500093E0EE0FFF1F9A95E1F7F88BEF87CF0106
:103C6000840F951F181619060CF0B1C1A98DBA8DD5
:103C700058968C91811104C0BFEABD1508F4D39405
:103C8000A98DBA8DED91FC9111970284F385E02DF9
:103C9000CD010995B5E0DB9EC0011124E981FA81CF
:103CA000FC83EB83312C212C9C012B53324E388F1B
:103CB0002F8B4A2D50E05E8B4D8BEF89F88DE20DF6
:103CC000F31D44919E828D82D12CC12C69817A8111
:103CD000620D731D7A8B698B842F90E09C8B8B8B8C
:103CE000E98DFA8DA081B18140FF82C0F1E0BF1261
:103CF0006FC0AF126DC01C96ED91FC912F8138857D
:103D0000A4014C0D5D1D69897A89898D9A8D09956B
:103D1000EB89FC89F595E7954E2F5FEFC51AD50A1B
:103D20006D817E818D899E89680F791F7E836D8369
:103D300098E0C916D10481F6AFEF2A1A3A0AEB814E
:103D4000FC81E40DF51DFC83EB83F5E02F163104B7
:103D500009F0B3CF2F81388526153705B9F0A98D25
:103D6000BA8DED91FC91B1E0BB1257C0AB1255C0BA
:103D700069817A816B5F7F4F0088F189E02D830133
:103D800028E030E0A401898D9A8D0995A98DBA8D1E
:103D9000ED91FC9111970688F789E02DCD016A9687
:103DA0000FB6F894DEBF0FBECDBFDF91CF911F914C
:103DB0000F91FF90EF90DF90CF90BF90AF909F90CA
:103DC0008F907F906F905F904F903F902F900994CD
:103DD0001E96ED91FC91EF80F88409851A85920179
:103DE0004D815E816B817C81898D9A8D099590CF03
:103DF0002F8138852615370509F48ACF31E0B312B3
:103E000007C0A31205C01C96ED91FC91930178CFD9
:103E10001E96ED91FC917301E0CF6B857C85641952
:103E200075090684F785E02D73010F8518899201C5
:103E3000A401898D9A8D0995A9CFF90134969491A1
:103E4000329745915491D91AB7E0DB9E400D511D30
:103E50001124F901259134913C8B2B8BFA0125908B
:103E60003490FA013296749031963491398B3296AF
:103E700064903196449041E04C1518F04A1508F0D2
:103E80007FC0662D062C000C770B7C836B83842D02
:103E9000042C000C990B9E838D83A98DBA8DED9116
:103EA000FC9111970284F385E02DCD010995512CE9
:103EB000D12CC12CEA2DF0E0FA87E9872B2D30E0D8
:103EC0003C872B87A401440D511D47FC5A95588F00
:103ED0004F8B69817A81660D711D67FC7A957E87AB
:103EE0006D877989C71608F051CF2C2D30E04D81B0
:103EF0005E81420F531FA985BA854A9FC0014B9F1F
:103F0000900D5A9F900D1124FC01E80DF91DF88BBE
:103F1000EF87852D612C4F89588D420F531F5E8B83
:103F20004D8B671408F050C044244394480E8770AA
:103F300041F4C1010196EB89FC89E20DF31DD49097
:103F40001C01D7FE19C0A98DBA8DED91FC91662D8B
:103F500070E0B1E0BB1219C0AB1217C02D853E85D1
:103F6000620F731F0484F585E02D2F8138854D89FC
:103F70005E89898D9A8D0995DD0C6394842DD1CF4E
:103F80001E821D821C821B8288CF4B815C81640F44
:103F9000751FAB85BC856A9FC0016B9F900D7A9F92
:103FA000900D112469817A81680F791F0684F78545
:103FB000E02DEF80F88409851A859D014F85588989
:103FC000898D9A8D0995D8CF570CC3948ACF6A965C
:103FD0000FB6F894DEBF0FBECDBFDF91CF911F911A
:103FE0000F91FF90EF90DF90CF90BF90AF909F9098
:103FF0008F907F906F905F904F903F902F9008959B
:104000008F929F92AF92CF92EF92FF920F931F9356
:10401000CF93DF93EC01262F898D9A8D009709F0BD
:1040200051C06A30D1F41D861C868D8948E0849F7A
:10403000900111248E859F85820F931F9F878E8705
:1040400081E090E0DF91CF911F910F91FF90EF9071
:10405000CF90AF909F908F9008956D3089F3CC886A
:10406000AD888F898823C1F08C859D8536E0C39EFD
:10407000800D911D1124488559854817590764F40E
:104080004E855F851D861C8638E0A39EC0011124E5
:10409000840F951F9F878E87EA88FB880889198976
:1040A0004E855F856C857D85CE010E94DB1D2C8948
:1040B0008C859D8546E0249F800D911D11249D8750
:1040C0008C87BECF6A3069F41D861C86FC01389649
:1040D000E4912D898E859F85E29F800D911D11248D
:1040E000ADCF6D3009F4ACCFFC0134963491631739
:1040F00008F4A6CF3296E491E61708F4A1CFFC01AC
:10410000329685909490462F431B342F47E0349F7E
:10411000800C911C1124F401329634913196E49173
:104120003323A9F1EE2399F1CC88F4013596E4917B
:10413000AD884F89442301F10E2E000CFF0BE30FD5
:10414000F11DCE9EA001CF9E500D11246C857D8562
:10415000460F571F68857985641775076CF44E857F
:104160005F851D861C86FC013896E491AE9E400D4D
:10417000511D11245F874E87EA88FB8808891989B9
:104180004E855F856C857D85CE010E94DB1DF40127
:104190003496E4912C898C859D85E29F800D911D3C
:1041A00011248DCF6F927F928F929F92AF92BF9288
:1041B000CF92DF92EF92FF920F931F93CF93DF93F3
:1041C000EC016B015A0139014801E881F98102844F
:1041D000F385E02D0995E881F9810288F389E02DC6
:1041E00087019301A501B601CE010995A501480DEE
:1041F000591D41505109E881F9810288F389E02D68
:104200009301B601CE010995E881F9810088F18911
:10421000E02D9401A501B601CE010995C60CD71C6D
:10422000B60161507109E881F9810088F189E02DBA
:104230009401A501CE010995E881F9810688F789E5
:10424000E02DCE01DF91CF911F910F91FF90EF9064
:10425000DF90CF90BF90AF909F908F907F906F90A6
:1042600009946F927F928F929F92AF92BF92CF925A
:10427000DF92EF92FF920F931F93CF93DF935C0136
:10428000EB016A01490138018701DC01ED91FC91E4
:104290006217730719F5641675062CF0962D872D95
:1042A0003A01C92ED82E9601261937092F5F3F4FA4
:1042B000048CF58DE02DA301BE01C5010995DF91A8
:1042C000CF911F910F91FF90EF90DF90CF90BF9013
:1042D000AF909F908F907F906F90089546155705EF
:1042E00091F42617370724F0892D4B01C22FD82FC0
:1042F0009E01281939092F5F3F4F068CF78DE02D5D
:10430000A601B401DACF0284F385E02D0995D50129
:10431000ED91FC910488F589E02D83019401A601BB
:10432000BE01C5010995D501ED91FC910688F7897B
:10433000E02DC501DF91CF911F910F91FF90EF907C
:10434000DF90CF90BF90AF909F908F907F906F90B5
:104350000994EF92FF920F931F93DC011A960D912F
:104360001C911B9718962D913C911997ED91FC91FA
:1043700000A0F1A1E02D7B0150E040E070E060E0A2
:1043800009951F910F91FF90EF9008954F925F92C2
:104390006F927F928F929F92AF92BF92CF92DF9255
:1043A000EF92FF920F931F93CF93DF936C012B013A
:1043B0005A0139014801DC01ED91FC910284F38539
:1043C000E02D0995E201640C751CD601ED91FC917C
:1043D000C615D7055CF40088F189E02D87019401AA
:1043E000A501BE01C60109952196EFCF0688F78980
:1043F000E02DC601DF91CF911F910F91FF90EF90BB
:10440000DF90CF90BF90AF909F908F907F906F90F4
:104410005F904F9009948F929F92AF92BF92CF92EC
:10442000DF92EF92FF920F931F93CF93DF93EC01F4
:104430005B014A016901E881F9810284F385E02D7D
:10444000099595012C0D3D1D21503109E881F98117
:104450000488F589E02D78018401A401B501CE011D
:104460000995E881F9810688F789E02DCE01DF9171
:10447000CF911F910F91FF90EF90DF90CF90BF9061
:10448000AF909F908F9009948F929F92AF92BF921E
:10449000CF92DF92EF92FF920F931F93CF93DF9310
:1044A000EC015B014A0169017801E881F98102842C
:1044B000F385E02D0995C80CD91C8601015011091E
:1044C000E881F9810488F589E02D9501A401B50101
:1044D000CE010995E881F9810688F789E02DCE01A2
:1044E000DF91CF911F910F91FF90EF90DF90CF90D0
:1044F000BF90AF909F908F9009940895EF92FF9294
:104500000F931F93DC01ED91FC9100A0F1A1E02D30
:1045100009951F910F91FF90EF9008950F931F93AE
:10452000DC01ED91FC91068CF78DE02D09951F9132
:104530000F9108950F931F93DC01ED91FC91048C72
:10454000F58DE02D09951F910F910895DC01ED91F6
:10455000FC910084F185E02D09942F923F924F92B7
:104560005F926F927F928F929F92AF92BF92CF9203
:10457000DF92EF92FF920F931F93CF93DF9300D0C0
:1045800000D000D0CDB7DEB73C016A013E832D8359
:10459000FC82EB825801A41AB50AB7FE03C0B1949D
:1045A000A194B1088D809E80861A970A97FE03C059
:1045B0009194819491088A149B045CF0902F812F30
:1045C0000D811E819D838E839C2D8D2D6B01692F06
:1045D000782F0C151D055CF09D818E817E836D8387
:1045E000692F782F902F812F8601C92ED82E160182
:1045F000201A310A2B012D813E81421A530A57FE9F
:1046000003C0519441945108710137FE03C03FEF3C
:10461000E31AF30AF594E7948D819E818617970734
:104620005CF5A1E0B0E0BA83A983C016D1064CF1D5
:10463000D301ED91FC910484F585E02D2B813C8123
:10464000A8016D817E818A149B041CF04D815E81DE
:10465000B801C3010995E418F508F7FE0AC02D81D9
:104660003E8189819A81280F391F3E832D83E20C78
:10467000F31C0F5F1F4FD9CF2FEF3FEF3A832983F2
:10468000D4CF26960FB6F894DEBF0FBECDBFDF9114
:10469000CF911F910F91FF90EF90DF90CF90BF903F
:1046A000AF909F908F907F906F905F904F903F90D2
:1046B0002F900895089590E080E00895029608955F
:1046C0000296089502960895029608950296089516
:1046D0000296089502960895EF92FF920F931F930A
:1046E000CF93DF93C4EED0E080EEE82EFF24FA945F
:1046F0008E0129E031E0AE0168E270E08EEE94E0D8
:104700000E943121A897C43F8FEFD80769F7DF9146
:10471000CF911F910F91FF90EF9008958F929F92EC
:10472000AF92BF92EF92FF920F931F93CF93DF93BD
:104730005C01FC01E35DFC4F208130E050E040E093
:104740002857310941095109A8E3BFEF0E94EF3210
:1047500029E130E040E050E00E94C232BA01A901F4
:104760004C515F4F6F4F7F4FE501A89600EF10E06F
:10477000041B150B2FE1E22EF12C21E030E0BE01ED
:104780008EEE94E00E94D21B0E946C2336E4832EAE
:10479000912C90EEE92EFF24FA9402E010E09401AF
:1047A00044EE50E0B4018EEE94E00E9431218EE19F
:1047B000880E911C88E1881681E0980651F7F50172
:1047C000E45BFD4FA081B0E028E33FEF4FEF5FEFE8
:1047D0000E94E1322DE730E040E050E00E94C2321A
:1047E00049015A0184EE880E911CA11CB11CA40140
:1047F000415051092FEF3FEFBE018EEE94E00E9431
:104800004B1AE12C88EFF82E04E010E021E030E0B4
:10481000A401BE018EEE94E00E94D21BA4014B5F66
:104820005F4F2FEF3FEFBE018EEE94E0DF91CF910F
:104830001F910F91FF90EF90BF90AF909F908F903E
:104840000C944B1AFC0101900020E9F73197AF015D
:10485000481B590BBC018EEE94E00C9467148F92A8
:104860009F92AF92BF920F931F93CF93DF93CDB7D9
:10487000DEB7A1970FB6F894DEBF0FBECDBF19A269
:10488000423008F44AE08E010F5D1F4F842E912CB8
:10489000B12CA12CA50194010E942B33E62FB90164
:1048A000CA01EA30F4F4E05DD801EE938D01232BC8
:1048B000242B252B79F790E080E0109719F0CD019B
:1048C0000E942224A1960FB6F894DEBF0FBECDBF82
:1048D000DF91CF911F910F91BF90AF909F908F90DC
:1048E0000895E95CE1CFCF93DF93D0E0C0E000977B
:1048F00019F00E942224EC0188EE91E00E9422240B
:104900008C0F9D1FDF91CF9108952F923F924F9270
:104910005F926F927F928F929F92AF92BF92CF924F
:10492000DF92EF92FF920F931F93CF93DF93EC01EF
:104930008F8D98A10E94BF1108A519A52EA13FA196
:104940004D8D5E8D6B8D7C8DE0EEEE2EFF24FA9406
:104950008EEE94E00E94D21B3E0188E2680E711C2C
:104960004E0186E2880E911C2E018DE1480E511CED
:104970001E018BE1280E311C5E0182E0A80EB11CE5
:10498000630174018201910150E040E070E060E059
:10499000C5010E94DF1129A18F89988D2130A1F5D1
:1049A0002EA13FA1821B930B9BA38AA3498D5A8DF5
:1049B0005DA34CA36AA17BA16301740182019101F3
:1049C000C5010E94DF118CA19DA12AA13BA13093BA
:1049D000FB042093FA049093FD048093FC04C5012A
:1049E000DF91CF911F910F91FF90EF90DF90CF90CB
:1049F000BF90AF909F908F907F906F905F904F90FF
:104A00003F902F900C947324233071F62EA13FA178
:104A100036952795C7CF2F923F924F925F926F9214
:104A20007F928F929F92AF92BF92CF92DF92EF923E
:104A3000FF920F931F93CF93DF93EC01888999899D
:104A40000E94BF11098D1A8D2F89388D4E855F8583
:104A50006C857D85E0EEEE2EFF24FA948EEE94E0D8
:104A60000E94D21B3E0189E1680E711C4E0187E154
:104A7000880E911C2E018EE0480E511C1E018CE008
:104A8000280E311C5E0182E0A80EB11C6301740186
:104A90008201910150E040E070E060E0C5010E94B9
:104AA000DF112A89888599852130A1F52F89388DD4
:104AB000821B930B9C8B8B8B4A855B855E8B4D8B0E
:104AC0006B897C896301740182019101C5010E9497
:104AD000DF118D899E892B893C893093FB042093BB
:104AE000FA049093FD048093FC04C501DF91CF91FB
:104AF0001F910F91FF90EF90DF90CF90BF90AF90FC
:104B00009F908F907F906F905F904F903F902F90ED
:104B10000C947324233071F62F89388D36952795A0
:104B2000C7CF2F923F924F925F926F927F928F9258
:104B30009F92AF92BF92CF92DF92EF92FF920F932C
:104B40001F93CF93DF93EC018E859F850E94BF1149
:104B50000F89188D2D893E894C855D856A857B85F9
:104B6000E0EEEE2EFF24FA948EEE94E00E94D21B2B
:104B70003E0187E1680E711C4E0185E1880E911C93
:104B80002E018CE0480E511C1E018AE0280E311CBB
:104B90005E0182E0A80EB11C6301740182019101E3
:104BA00050E040E070E060E0C5010E94DF1128891C
:104BB0008E819F812130A1F52D893E89821B930B27
:104BC0009A8B898B488559855C8B4B8B69897A894F
:104BD0006301740182019101C5010E94DF118B897B
:104BE0009C8929893A893093FB042093FA04909395
:104BF000FD048093FC04C501DF91CF911F910F91BB
:104C0000FF90EF90DF90CF90BF90AF909F908F90EC
:104C10007F906F905F904F903F902F900C947324F3
:104C2000233071F62D893E8936952795C7CF2F926F
:104C30003F924F925F926F927F928F929F92AF922C
:104C4000BF92CF92DF92EF92FF920F931F93CF9379
:104C5000DF93EC018F8598890E94BF11088D198D13
:104C60002E893F894D855E856B857C85E0EEEE2E35
:104C7000FF24FA948EEE94E00E94D21B3E0188E15C
:104C8000680E711C4E0186E1880E911C2E018DE08C
:104C9000480E511C1E018BE0280E311C5E0182E083
:104CA000A80EB11C630174018201910150E040E043
:104CB00070E060E0C5010E94DF1129898F8198852D
:104CC0002130A1F52E893F89821B930B9B8B8A8B08
:104CD00049855A855D8B4C8B6A897B896301740198
:104CE00082019101C5010E94DF118C899D892A8969
:104CF0003B893093FB042093FA049093FD04809346
:104D0000FC04C501DF91CF911F910F91FF90EF90AF
:104D1000DF90CF90BF90AF909F908F907F906F90DB
:104D20005F904F903F902F900C947324233071F636
:104D30002E893F8936952795C7CF2F923F924F9264
:104D40005F926F927F928F929F92AF92BF92CF921B
:104D5000DF92EF92FF920F931F93CF93DF93EC01BB
:104D60008D859E850E94BF110E891F892C893D89E2
:104D70004B855C8569857A85E0EEEE2EFF24FA94FA
:104D80008EEE94E00E94D21B3E0186E1680E711CFB
:104D90004E0184E1880E911C2E018BE0480E511CBF
:104DA0001E0189E0280E311C5E0182E0A80EB11CB4
:104DB000630174018201910150E040E070E060E025
:104DC000C5010E94DF112F858D819E812130A1F5C3
:104DD0002C893D89821B930B998B888B4F81588539
:104DE0005B8B4A8B68897989630174018201910127
:104DF000C5010E94DF118A899B89288939893093EE
:104E0000FB042093FA049093FD048093FC04C501F5
:104E1000DF91CF911F910F91FF90EF90DF90CF9096
:104E2000BF90AF909F908F907F906F905F904F90CA
:104E30003F902F900C947324233071F62C893D8978
:104E400036952795C7CF2F923F924F925F926F92E0
:104E50007F928F929F92AF92BF92CF92DF92EF920A
:104E6000FF920F931F93CF93DF93EC01888D998D61
:104E70000E94BF1109A11AA12F8D38A14E895F8907
:104E80006C897D89E0EEEE2EFF24FA948EEE94E09C
:104E90000E94D21B3E0181E2680E711C4E018FE11F
:104EA000880E911C2E0186E1480E511C1E0184E1E2
:104EB000280E311C5E0182E0A80EB11C6301740152
:104EC0008201910150E040E070E060E0C5010E9485
:104ED000DF112A8D888999892130A1F52F8D38A17C
:104EE000821B930B9C8F8B8F4A895B895E8F4D8FC2
:104EF0006B8D7C8D6301740182019101C5010E945B
:104F0000DF118D8D9E8D2B8D3C8D3093FB04209376
:104F1000FA049093FD048093FC04C501DF91CF91C6
:104F20001F910F91FF90EF90DF90CF90BF90AF90C7
:104F30009F908F907F906F905F904F903F902F90B9
:104F40000C947324233071F62F8D38A13695279554
:104F5000C7CF2F923F924F925F926F927F928F9224
:104F60009F92AF92BF92CF92DF92EF92FF920F93F8
:104F70001F93CF93DF93EC0189A59AA50E94BF11DF
:104F80000AA91BA928A939A94FA158A56DA17EA1DD
:104F9000E0EEEE2EFF24FA948EEE94E00E94D21BF7
:104FA0003E0182E3680E711C4E0180E3880E911C65
:104FB0002E0187E2480E511C1E0185E2280E311C8D
:104FC0005E0182E0A80EB11C6301740182019101AF
:104FD00050E040E070E060E0C5010E94DF112BA5C9
:104FE00089A19AA12130A1F528A939A9821B930B87
:104FF0009DA78CA74BA15CA15FA74EA76CA57DA523
:105000006301740182019101C5010E94DF118EA527
:105010009FA52CA53DA53093FB042093FA04909303
:10502000FD048093FC04C501DF91CF911F910F9186
:10503000FF90EF90DF90CF90BF90AF909F908F90B8
:105040007F906F905F904F903F902F900C947324BF
:10505000233071F628A939A936952795C7CF0E9424
:10506000173445E050E002960C94253443E050E0BC
:1050700002960C94253444E050E002960C942534BA
:1050800042E050E002960C9425344DE050E0029648
:105090000C94253444E150E002960C9425344EE102
:1050A00050E002960C942534EF92FF920F931F93D9
:1050B000CF9380913904813E58F581E596E00E94B6
:1050C000D42FC09139040C2F10E09801235D3C4F80
:1050D000790120E030E040E251E40E9401320E9478
:1050E000DE33F701608388E396E00E94D82FCF5F1C
:1050F000C0933904F801E45BFD4F8083809147043D
:10510000863031F42C2F2150330BC9010E948E239D
:105110008091420490914304A0914404B0914504CD
:1051200080933E0490933F04A0934004B0934104C5
:10513000CF911F910F91FF90EF9008951F920F92C2
:105140000FB60F9211242F933F938F939F93AF939A
:10515000BF938091490490914A04A0914B04B0916F
:105160004C043091480423E0230F2D3758F5019665
:10517000A11DB11D209348048093490490934A04D3
:10518000A0934B04B0934C0480914D0490914E0435
:10519000A0914F04B09150040196A11DB11D8093C0
:1051A0004D0490934E04A0934F04B0935004BF91CC
:1051B000AF919F918F913F912F910F900FBE0F90C4
:1051C0001F90189526E8230F0296A11DB11DD2CF7E
:1051D0001F920F920FB60F9211242F933F934F936C
:1051E0005F936F937F938F939F93AF93BF93EF934F
:1051F000FF9381E594E00E94E514FF91EF91BF9148
:10520000AF919F918F917F916F915F914F913F915E
:105210002F910F900FBE0F901F9018951F920F9215
:105220000FB60F9211242F938F939F93EF93FF93B9
:10523000E0916104F09162048081E0916704F09153
:10524000680482FD1BC0908180916A048F5F8F7318
:1052500020916B04821741F0E0916A04F0E0EF5A6C
:10526000FB4F958F80936A04FF91EF919F918F91EF
:105270002F910F900FBE0F901F9018958081F4CF43
:1052800090E0FC01ED51FD4D24918F5F9C4DFC01A0
:105290008491882399F090E0880F991FFC01E752D0
:1052A000FD4DA591B491FC01E950FD4D859194917E
:1052B0008FB7F894EC91E22BEC938FBF08952F9267
:1052C0003F924F925F926F927F928F929F92AF9296
:1052D000BF92CF92DF92EF92FF920F931F93CF93E3
:1052E000DF93E1E5F4E01382128288EE93E0A0E020
:1052F000B0E084839583A683B78388E691E09183A9
:10530000808385EC90E09587848784EC90E0978794
:10531000868780EC90E0918B808B81EC90E0938B82
:10532000828B02EC10E0158B048B86EC90E0978B5F
:10533000868B118E128E138E148EE3E0F7E04EEC06
:1053400051E05183408385E1782EA5E0B7E0ED017F
:10535000472C19924A94E9F720EA30E0308F278BE6
:1053600088E290E0928F818F8EE193E290A3878F05
:1053700063E0A62EA1A2E9EDF6E051834083ABEDF8
:10538000B6E0ED01472C19924A94E9F7308F278B4C
:1053900060E570E0728F618F90A3878FA1A2EFEA22
:1053A000F6E051834083A1EBB6E0ED01472C199262
:1053B0004A94E9F7308F278BA8E7B0E0B28FA18F2E
:1053C00090A3878FA1A2E5E8F6E05183408377E8B8
:1053D000E72E76E0F72EE701472C19924A94E9F779
:1053E000308F278B328F218FC5E18C2EC3E29C2E0C
:1053F00090A2878EA1A2EAE6F6E0D4EC2D2ED1E0B1
:105400003D2E3182208266E0562E6CE676E0EB017E
:10541000452C19924A94E9F7B187A0877EE3E72EDD
:10542000F12CF386E286918B808BC2E0BC2EB28A8F
:10543000EFE4F6E03182208261E576E0EB01452C75
:1054400019924A94E9F76CED70E071876087F386F2
:10545000E286918B808BB28AE6E3F6E0D2EECD2E27
:10546000D1E0DD2ED182C082128213821482158295
:10547000B783A683CDE5EC2EF12CF186E0869787E5
:105480008687B08AEDE1F6E0D182C0821282138273
:105490001482158277836683F186E08697878687F4
:1054A000B08AE3E0F6E0DAEBED2ED1E0FD2EF182FA
:1054B000E082C5E06C2ED5E0CD2ED6E0DD2EE601F3
:1054C000462C19924A94E9F7B087A783ACE7CA2E15
:1054D000D12CD286C186908B8787B18AE9EEF5E020
:1054E000F182E082ABEEB5E0ED01462C19924A94D0
:1054F000E9F770876783D286C186908B8787B18AE8
:10550000E1EDF5E0A8EDB1E0B183A0831282138252
:105510001482A4EBB0E0B683A58310870783968737
:105520008587B786EEEAF5E0A0EBB1E0B183A08312
:10553000A0EBB5E0CEE0DC2EED011992DA94E9F7AC
:10554000CC24C394D12CD18AC08A138B028B918F27
:10555000808FB28EE4E9F5E0F182E082A6E9B5E061
:10556000ED0119926A94E9F7708767833287218782
:10557000908B8787B18AE9E7F5E031822082ABE73B
:10558000B5E0ED0119925A94E9F766E371E071878D
:1055900060876BEE70E073876287918B808B11E080
:1055A000128BE5E4F5E0A6EAB1E0B183A08307E45D
:1055B000E02E05E0F02ECFE1D7011D92CA95E9F764
:1055C00032A321A328EC30E034A323A392A681A622
:1055D000A3A6EBE1F5E051834083ADE1B5E0ED0139
:1055E00019927A94E9F7D08EC78A728F618F90A34F
:1055F000878FB1A2CEEED4E01B821A8280EFC82E34
:10560000D12CDD82CC8290E4E92EFF24F394FF823A
:10561000EE82D986C886FB86EA861E8A1D861C868F
:105620001F861E861D8B1C8BAA24AA94BA2CBB8AAB
:10563000AA8AB98AA88A1F8B188E1A8E198E8AE7B1
:1056400091E09983888382E18CA7E2E1F3E2E4911F
:10565000F0E0EE0FFF1FE950FD4DA591B491BD8F15
:10566000AC8FE1E1F3E2E491F0E0EE0FFF1FE950CF
:10567000FD4D859194919F8F8E8FE0E1F3E2E4914F
:10568000F0E0EE0FFF1FE950FD4D8591949199A335
:1056900088A3EFE0F3E2E491F0E0EE0FFF1FE950A2
:1056A000FD4D859194919BA38AA3E4EFF2E284914E
:1056B0008CA3E3EFF2E224912DA3E2EFF2E29491C6
:1056C0009EA3E1EFF2E2E491EFA3382F309538A7E3
:1056D000209529A790959AA7E095EBA7EC91E82B48
:1056E000EC93EE8DFF8D80819DA1892B8083E8A1B5
:1056F000F9A180819EA1892B8083EAA1FBA18081F1
:105700009FA1892B808381E10E94402980E10E9432
:1057100040298FE00E9440298EE00E94402961E0EC
:1057200082E10E944D1382E10E9440298AB18C6F70
:105730008AB984B1836084B91E8A1D861C861F863F
:105740001E86B98AA88AD986C886FB86EA86DF9132
:10575000CF911F910F91FF90EF90DF90CF90BF906E
:10576000AF909F908F907F906F905F904F903F9001
:105770002F900895CF93DF9300D000D000D0CDB705
:10578000DEB7789484B5826084BD84B5816084BDC1
:1057900085B5826085BD85B5816085BD80916E00CF
:1057A000816080936E001092810080918100826000
:1057B000809381008091810081608093810080913D
:1057C00080008160809380008091B100846080932C
:1057D000B1008091B00081608093B00080917A0028
:1057E000846080937A0080917A00826080937A004E
:1057F00080917A00816080937A0080917A0080683D
:1058000080937A001092C100E0916104F0916204EB
:1058100022E02083E0915D04F0915E041082E0912B
:105820005F04F091600480E1808310926904E0914C
:105830006504F091660486E08083E0916304F09152
:105840006404808180618083E0916304F09164044A
:10585000808188608083E0916304F091640480819A
:1058600080688083E0916304F091640480818F7D7F
:1058700080830E94F1130E94F11368EC70E080E0D5
:1058800090E00E94BE1332E030930905E0910A05D2
:10589000F0910B058081909116058923808340E06B
:1058A00061E08EEE94E00E94021762E370E080E017
:1058B00090E00E94BE1340E068E28EEE94E00E9409
:1058C000021743E260EC8EEE94E00E94021740E182
:1058D00061EC8EEE94E00E9402174BE25BE265EC15
:1058E00070E08EEE94E00E94981640EC67EC8EEE2D
:1058F00094E00E94021748E866E38EEE94E00E946E
:10590000021745E56AE38EEE94E00E9402174BE130
:1059100050E061EB70E08EEE94E00E94981647E054
:1059200067EB8EEE94E00E94021740E061E18EEE9C
:1059300094E00E94021766E970E080E090E00E9427
:10594000BE1340E069E28EEE94E00E94021764EF1D
:1059500071E080E090E00E94BE130FE311E02FEEB3
:1059600030E050E040E070E060E08EEE94E00E94B5
:105970007A1963E08EEE94E00E94371D60EE73E0CA
:105980008EEE94E00E947F1B8FEF9FEF90930105B6
:10599000809300059093FF048093FE046BEE71E00A
:1059A00083E097E00E944A2869EF71E089ED96E074
:1059B0000E944A286BE072E08FEA96E00E944A2833
:1059C00060E071E085E896E00E944A2884E291E078
:1059D0009A8389830CE211E0A981BA818D919D910E
:1059E000BA83A983DC01ED91FC910280F381E02D63
:1059F0000995E981FA810E171F0771F781E08093FD
:105A000047042FB7F8948091490490914A04A091DB
:105A10004B04B0914C042FBF80933E0490933F04FD
:105A2000A0934004B09341040FE110E081E594E0BD
:105A30000E94C51418161906B4F481E594E00E947A
:105A4000A314843229F410920F04F1E0F0930E04B1
:105A500090910E04992351F3E0910F04E83209F07C
:105A600050C010920F042FB7F89480914904909180
:105A70004A04A0914B04B0914C042FBF8093420480
:105A800090934304A0934404B093450420914704A9
:105A9000233009F4FAC008F08AC0213009F4A3C009
:105AA000223009F4C2C08091420490914304A09135
:105AB0004404B091450440913A0450913B046091F4
:105AC0003C0470913D04841B950BA60BB70B8939E0
:105AD0009A43A105B10540F080914704863009F052
